{
  "contractName": "Voting",
  "abi": [
    {
      "inputs": [],
      "stateMutability": "nonpayable",
      "type": "constructor"
    },
    {
      "anonymous": false,
      "inputs": [
        {
          "indexed": true,
          "internalType": "address",
          "name": "previousOwner",
          "type": "address"
        },
        {
          "indexed": true,
          "internalType": "address",
          "name": "newOwner",
          "type": "address"
        }
      ],
      "name": "OwnershipTransferred",
      "type": "event"
    },
    {
      "anonymous": false,
      "inputs": [
        {
          "indexed": false,
          "internalType": "uint256",
          "name": "proposalId",
          "type": "uint256"
        }
      ],
      "name": "ProposalRegistered",
      "type": "event"
    },
    {
      "anonymous": false,
      "inputs": [
        {
          "indexed": false,
          "internalType": "address",
          "name": "voter",
          "type": "address"
        },
        {
          "indexed": false,
          "internalType": "uint256",
          "name": "proposalId",
          "type": "uint256"
        }
      ],
      "name": "Voted",
      "type": "event"
    },
    {
      "anonymous": false,
      "inputs": [
        {
          "indexed": false,
          "internalType": "address",
          "name": "voterAddress",
          "type": "address"
        }
      ],
      "name": "VoterRegistered",
      "type": "event"
    },
    {
      "anonymous": false,
      "inputs": [
        {
          "indexed": false,
          "internalType": "enum Voting.WorkflowStatus",
          "name": "previousStatus",
          "type": "uint8"
        },
        {
          "indexed": false,
          "internalType": "enum Voting.WorkflowStatus",
          "name": "newStatus",
          "type": "uint8"
        }
      ],
      "name": "WorkflowStatusChange",
      "type": "event"
    },
    {
      "inputs": [
        {
          "internalType": "uint256",
          "name": "",
          "type": "uint256"
        }
      ],
      "name": "addressOfVoters",
      "outputs": [
        {
          "internalType": "address",
          "name": "",
          "type": "address"
        }
      ],
      "stateMutability": "view",
      "type": "function",
      "constant": true
    },
    {
      "inputs": [
        {
          "internalType": "uint256",
          "name": "",
          "type": "uint256"
        }
      ],
      "name": "allOfWinners",
      "outputs": [
        {
          "internalType": "address",
          "name": "",
          "type": "address"
        }
      ],
      "stateMutability": "view",
      "type": "function",
      "constant": true
    },
    {
      "inputs": [],
      "name": "currentStatus",
      "outputs": [
        {
          "internalType": "enum Voting.WorkflowStatus",
          "name": "",
          "type": "uint8"
        }
      ],
      "stateMutability": "view",
      "type": "function",
      "constant": true
    },
    {
      "inputs": [],
      "name": "nbSession",
      "outputs": [
        {
          "internalType": "uint256",
          "name": "",
          "type": "uint256"
        }
      ],
      "stateMutability": "view",
      "type": "function",
      "constant": true
    },
    {
      "inputs": [],
      "name": "owner",
      "outputs": [
        {
          "internalType": "address",
          "name": "",
          "type": "address"
        }
      ],
      "stateMutability": "view",
      "type": "function",
      "constant": true
    },
    {
      "inputs": [
        {
          "internalType": "uint256",
          "name": "",
          "type": "uint256"
        }
      ],
      "name": "proposals",
      "outputs": [
        {
          "internalType": "string",
          "name": "description",
          "type": "string"
        },
        {
          "internalType": "uint256",
          "name": "voteCount",
          "type": "uint256"
        },
        {
          "internalType": "address",
          "name": "proposersAddress",
          "type": "address"
        }
      ],
      "stateMutability": "view",
      "type": "function",
      "constant": true
    },
    {
      "inputs": [],
      "name": "renounceOwnership",
      "outputs": [],
      "stateMutability": "nonpayable",
      "type": "function"
    },
    {
      "inputs": [
        {
          "internalType": "address",
          "name": "newOwner",
          "type": "address"
        }
      ],
      "name": "transferOwnership",
      "outputs": [],
      "stateMutability": "nonpayable",
      "type": "function"
    },
    {
      "inputs": [
        {
          "internalType": "address",
          "name": "_adressOfVoters",
          "type": "address"
        }
      ],
      "name": "registeredVoter",
      "outputs": [],
      "stateMutability": "nonpayable",
      "type": "function"
    },
    {
      "inputs": [],
      "name": "startProposalSession",
      "outputs": [],
      "stateMutability": "nonpayable",
      "type": "function"
    },
    {
      "inputs": [
        {
          "internalType": "string",
          "name": "_descriptionOfTheProposal",
          "type": "string"
        }
      ],
      "name": "addProposal",
      "outputs": [],
      "stateMutability": "nonpayable",
      "type": "function"
    },
    {
      "inputs": [],
      "name": "endProposalSession",
      "outputs": [],
      "stateMutability": "nonpayable",
      "type": "function"
    },
    {
      "inputs": [],
      "name": "startVotingSession",
      "outputs": [],
      "stateMutability": "nonpayable",
      "type": "function"
    },
    {
      "inputs": [
        {
          "internalType": "uint256",
          "name": "_votedId",
          "type": "uint256"
        }
      ],
      "name": "voteToFavorite",
      "outputs": [],
      "stateMutability": "nonpayable",
      "type": "function"
    },
    {
      "inputs": [],
      "name": "VotingSessionEnded",
      "outputs": [],
      "stateMutability": "nonpayable",
      "type": "function"
    },
    {
      "inputs": [],
      "name": "VotesCounted",
      "outputs": [],
      "stateMutability": "nonpayable",
      "type": "function"
    },
    {
      "inputs": [],
      "name": "getDetailsOfWinner",
      "outputs": [
        {
          "internalType": "string",
          "name": "_description",
          "type": "string"
        },
        {
          "internalType": "uint256",
          "name": "_nbVotes",
          "type": "uint256"
        }
      ],
      "stateMutability": "view",
      "type": "function",
      "constant": true
    },
    {
      "inputs": [],
      "name": "getWinnerAdress",
      "outputs": [
        {
          "internalType": "address",
          "name": "_winnerAddress",
          "type": "address"
        }
      ],
      "stateMutability": "view",
      "type": "function",
      "constant": true
    },
    {
      "inputs": [],
      "name": "addPointToWinner",
      "outputs": [],
      "stateMutability": "nonpayable",
      "type": "function"
    },
    {
      "inputs": [],
      "name": "addWinnerListing",
      "outputs": [],
      "stateMutability": "nonpayable",
      "type": "function"
    },
    {
      "inputs": [],
      "name": "restartSession",
      "outputs": [],
      "stateMutability": "nonpayable",
      "type": "function"
    }
  ],
  "bytecode": "0x60806040523480156200001157600080fd5b5062000032620000266200006d60201b60201c565b6200007560201b60201c565b60008060146101000a81548160ff021916908360058111156200005a576200005962000139565b5b0217905550600160068190555062000168565b600033905090565b60008060009054906101000a900473ffffffffffffffffffffffffffffffffffffffff169050816000806101000a81548173ffffffffffffffffffffffffffffffffffffffff021916908373ffffffffffffffffffffffffffffffffffffffff1602179055508173ffffffffffffffffffffffffffffffffffffffff168173ffffffffffffffffffffffffffffffffffffffff167f8be0079c531659141344cd1fd0a4f28419497f9722a3daafe3b4186f6b6457e060405160405180910390a35050565b7f4e487b7100000000000000000000000000000000000000000000000000000000600052602160045260246000fd5b6127ec80620001786000396000f3fe608060405234801561001057600080fd5b50600436106101375760003560e01c8063795769e5116100b8578063e06752c21161007c578063e06752c2146102cd578063e5ead134146102d7578063ee74c678146102e1578063ef8a9235146102eb578063f2fde38b14610309578063f435a6f61461032557610137565b8063795769e5146102615780638ba64b951461026b5780638da5cb5b146102755780639c04a9cd14610293578063c379d349146102c357610137565b80632fdae3c5116100ff5780632fdae3c5146101e3578063346dbde3146101ff57806340ef69bc1461021d57806350d072fc1461024d578063715018a61461025757610137565b8063013cf08b1461013c578063077942471461016e5780630cc981471461018a57806327ee161f146101a65780632ca0376a146101c5575b600080fd5b61015660048036038101906101519190611822565b61032f565b6040516101659392919061192f565b60405180910390f35b61018860048036038101906101839190611822565b610411565b005b6101a4600480360381019061019f9190611999565b6106bf565b005b6101ae610929565b6040516101bc9291906119c6565b60405180910390f35b6101cd610a0d565b6040516101da91906119f6565b60405180910390f35b6101fd60048036038101906101f89190611b46565b610a5c565b005b610207610c78565b6040516102149190611b8f565b60405180910390f35b61023760048036038101906102329190611822565b610c7e565b60405161024491906119f6565b60405180910390f35b610255610cbd565b005b61025f610da3565b005b610269610db7565b005b610273610fa5565b005b61027d6110ce565b60405161028a91906119f6565b60405180910390f35b6102ad60048036038101906102a89190611822565b6110f7565b6040516102ba91906119f6565b60405180910390f35b6102cb611136565b005b6102d561121c565b005b6102df611302565b005b6102e961146b565b005b6102f3611551565b6040516103009190611c21565b60405180910390f35b610323600480360381019061031e9190611999565b611564565b005b61032d6115e7565b005b6004818154811061033f57600080fd5b906000526020600020906003020160009150905080600001805461036290611c6b565b80601f016020809104026020016040519081016040528092919081815260200182805461038e90611c6b565b80156103db5780601f106103b0576101008083540402835291602001916103db565b820191906000526020600020905b8154815290600101906020018083116103be57829003601f168201915b5050505050908060010154908060020160009054906101000a900473ffffffffffffffffffffffffffffffffffffffff16905083565b6003600581111561042557610424611baa565b5b600060149054906101000a900460ff16600581111561044757610446611baa565b5b14610487576040517f08c379a000000000000000000000000000000000000000000000000000000000815260040161047e90611ce8565b60405180910390fd5b600260003373ffffffffffffffffffffffffffffffffffffffff1673ffffffffffffffffffffffffffffffffffffffff16815260200190815260200160002060000160009054906101000a900460ff16610516576040517f08c379a000000000000000000000000000000000000000000000000000000000815260040161050d90611d54565b60405180910390fd5b600260003373ffffffffffffffffffffffffffffffffffffffff1673ffffffffffffffffffffffffffffffffffffffff16815260200190815260200160002060000160019054906101000a900460ff16156105a6576040517f08c379a000000000000000000000000000000000000000000000000000000000815260040161059d90611dc0565b60405180910390fd5b80600260003373ffffffffffffffffffffffffffffffffffffffff1673ffffffffffffffffffffffffffffffffffffffff168152602001908152602001600020600101819055506001600260003373ffffffffffffffffffffffffffffffffffffffff1673ffffffffffffffffffffffffffffffffffffffff16815260200190815260200160002060000160016101000a81548160ff0219169083151502179055506004818154811061065c5761065b611de0565b5b9060005260206000209060030201600101600081548092919061067e90611e3e565b91905055507f4d99b957a2bc29a30ebd96a7be8e68fe50a3c701db28a91436490b7d53870ca433826040516106b4929190611e86565b60405180910390a150565b6106c7611650565b600060058111156106db576106da611baa565b5b600060149054906101000a900460ff1660058111156106fd576106fc611baa565b5b1461073d576040517f08c379a000000000000000000000000000000000000000000000000000000000815260040161073490611f21565b60405180910390fd5b600260008273ffffffffffffffffffffffffffffffffffffffff1673ffffffffffffffffffffffffffffffffffffffff16815260200190815260200160002060000160009054906101000a900460ff16156107cd576040517f08c379a00000000000000000000000000000000000000000000000000000000081526004016107c490611f8d565b60405180910390fd5b6040518060800160405280600115158152602001600015158152602001600081526020016000815250600260008373ffffffffffffffffffffffffffffffffffffffff1673ffffffffffffffffffffffffffffffffffffffff16815260200190815260200160002060008201518160000160006101000a81548160ff02191690831515021790555060208201518160000160016101000a81548160ff02191690831515021790555060408201518160010155606082015181600201559050506003819080600181540180825580915050600190039060005260206000200160009091909190916101000a81548173ffffffffffffffffffffffffffffffffffffffff021916908373ffffffffffffffffffffffffffffffffffffffff1602179055507fb6be2187d059cc2a55fe29e0e503b566e1e0f8c8780096e185429350acffd3dd8160405161091e91906119f6565b60405180910390a150565b6060600060046001548154811061094357610942611de0565b5b9060005260206000209060030201600001805461095f90611c6b565b80601f016020809104026020016040519081016040528092919081815260200182805461098b90611c6b565b80156109d85780601f106109ad576101008083540402835291602001916109d8565b820191906000526020600020905b8154815290600101906020018083116109bb57829003601f168201915b505050505091506004600154815481106109f5576109f4611de0565b5b90600052602060002090600302016001015490509091565b6000600460015481548110610a2557610a24611de0565b5b906000526020600020906003020160020160009054906101000a900473ffffffffffffffffffffffffffffffffffffffff16905090565b60016005811115610a7057610a6f611baa565b5b600060149054906101000a900460ff166005811115610a9257610a91611baa565b5b14610ad2576040517f08c379a0000000000000000000000000000000000000000000000000000000008152600401610ac99061201f565b60405180910390fd5b600260003373ffffffffffffffffffffffffffffffffffffffff1673ffffffffffffffffffffffffffffffffffffffff16815260200190815260200160002060000160009054906101000a900460ff16610b61576040517f08c379a0000000000000000000000000000000000000000000000000000000008152600401610b589061208b565b60405180910390fd5b60046040518060600160405280838152602001600081526020013373ffffffffffffffffffffffffffffffffffffffff1681525090806001815401808255809150506001900390600052602060002090600302016000909190919091506000820151816000019081610bd39190612257565b506020820151816001015560408201518160020160006101000a81548173ffffffffffffffffffffffffffffffffffffffff021916908373ffffffffffffffffffffffffffffffffffffffff160217905550505060006001600480549050610c3b9190612329565b90507f92e393e9b54e2f801d3ea4beb0c5e71a21cc34a5d34b77d0fb8a3aa1650dc18f81604051610c6c9190611b8f565b60405180910390a15050565b60065481565b60038181548110610c8e57600080fd5b906000526020600020016000915054906101000a900473ffffffffffffffffffffffffffffffffffffffff1681565b610cc5611650565b60006005811115610cd957610cd8611baa565b5b600060149054906101000a900460ff166005811115610cfb57610cfa611baa565b5b14610d3b576040517f08c379a0000000000000000000000000000000000000000000000000000000008152600401610d32906123cf565b60405180910390fd5b6001600060146101000a81548160ff02191690836005811115610d6157610d60611baa565b5b02179055507f0a97a4ee45751e2abf3e4fc8946939630b11b371ea8ae39ccdc3056e98f5cc3f60006001604051610d999291906123ef565b60405180910390a1565b610dab611650565b610db560006116ce565b565b610dbf611650565b600580811115610dd257610dd1611baa565b5b600060149054906101000a900460ff166005811115610df457610df3611baa565b5b14610e34576040517f08c379a0000000000000000000000000000000000000000000000000000000008152600401610e2b90612464565b60405180910390fd5b60066000815480929190610e4790611e3e565b919050555060005b6003805490508161ffff161015610f2f576002600060038361ffff1681548110610e7c57610e7b611de0565b5b9060005260206000200160009054906101000a900473ffffffffffffffffffffffffffffffffffffffff1673ffffffffffffffffffffffffffffffffffffffff1673ffffffffffffffffffffffffffffffffffffffff168152602001908152602001600020600080820160006101000a81549060ff02191690556000820160016101000a81549060ff02191690556001820160009055600282016000905550508080610f2790612492565b915050610e4f565b5060036000610f3e919061179a565b60008060146101000a81548160ff02191690836005811115610f6357610f62611baa565b5b02179055507f0a97a4ee45751e2abf3e4fc8946939630b11b371ea8ae39ccdc3056e98f5cc3f60056000604051610f9b9291906123ef565b60405180910390a1565b610fad611650565b600580811115610fc057610fbf611baa565b5b600060149054906101000a900460ff166005811115610fe257610fe1611baa565b5b14611022576040517f08c379a000000000000000000000000000000000000000000000000000000000815260040161101990612508565b60405180910390fd5b600560046001548154811061103a57611039611de0565b5b906000526020600020906003020160020160009054906101000a900473ffffffffffffffffffffffffffffffffffffffff169080600181540180825580915050600190039060005260206000200160009091909190916101000a81548173ffffffffffffffffffffffffffffffffffffffff021916908373ffffffffffffffffffffffffffffffffffffffff160217905550565b60008060009054906101000a900473ffffffffffffffffffffffffffffffffffffffff16905090565b6005818154811061110757600080fd5b906000526020600020016000915054906101000a900473ffffffffffffffffffffffffffffffffffffffff1681565b61113e611650565b6003600581111561115257611151611baa565b5b600060149054906101000a900460ff16600581111561117457611173611baa565b5b146111b4576040517f08c379a00000000000000000000000000000000000000000000000000000000081526004016111ab90612574565b60405180910390fd5b6004600060146101000a81548160ff021916908360058111156111da576111d9611baa565b5b02179055507f0a97a4ee45751e2abf3e4fc8946939630b11b371ea8ae39ccdc3056e98f5cc3f600360046040516112129291906123ef565b60405180910390a1565b611224611650565b6001600581111561123857611237611baa565b5b600060149054906101000a900460ff16600581111561125a57611259611baa565b5b1461129a576040517f08c379a00000000000000000000000000000000000000000000000000000000081526004016112919061201f565b60405180910390fd5b6002600060146101000a81548160ff021916908360058111156112c0576112bf611baa565b5b02179055507f0a97a4ee45751e2abf3e4fc8946939630b11b371ea8ae39ccdc3056e98f5cc3f600160026040516112f89291906123ef565b60405180910390a1565b61130a611650565b6004600581111561131e5761131d611baa565b5b600060149054906101000a900460ff1660058111156113405761133f611baa565b5b14611380576040517f08c379a000000000000000000000000000000000000000000000000000000000815260040161137790612606565b60405180910390fd5b6005600060146101000a81548160ff021916908360058111156113a6576113a5611baa565b5b02179055506000805b60048054905081101561142c5781600482815481106113d1576113d0611de0565b5b906000526020600020906003020160010154111561141957600481815481106113fd576113fc611de0565b5b9060005260206000209060030201600101549150806001819055505b808061142490611e3e565b9150506113af565b507f0a97a4ee45751e2abf3e4fc8946939630b11b371ea8ae39ccdc3056e98f5cc3f600460056040516114609291906123ef565b60405180910390a150565b611473611650565b6002600581111561148757611486611baa565b5b600060149054906101000a900460ff1660058111156114a9576114a8611baa565b5b146114e9576040517f08c379a00000000000000000000000000000000000000000000000000000000081526004016114e090612698565b60405180910390fd5b6003600060146101000a81548160ff0219169083600581111561150f5761150e611baa565b5b02179055507f0a97a4ee45751e2abf3e4fc8946939630b11b371ea8ae39ccdc3056e98f5cc3f600260036040516115479291906123ef565b60405180910390a1565b600060149054906101000a900460ff1681565b61156c611650565b600073ffffffffffffffffffffffffffffffffffffffff168173ffffffffffffffffffffffffffffffffffffffff16036115db576040517f08c379a00000000000000000000000000000000000000000000000000000000081526004016115d29061272a565b60405180910390fd5b6115e4816116ce565b50565b6115ef611650565b600260006115fb610a0d565b73ffffffffffffffffffffffffffffffffffffffff1673ffffffffffffffffffffffffffffffffffffffff168152602001908152602001600020600201600081548092919061164990611e3e565b9190505550565b611658611792565b73ffffffffffffffffffffffffffffffffffffffff166116766110ce565b73ffffffffffffffffffffffffffffffffffffffff16146116cc576040517f08c379a00000000000000000000000000000000000000000000000000000000081526004016116c390612796565b60405180910390fd5b565b60008060009054906101000a900473ffffffffffffffffffffffffffffffffffffffff169050816000806101000a81548173ffffffffffffffffffffffffffffffffffffffff021916908373ffffffffffffffffffffffffffffffffffffffff1602179055508173ffffffffffffffffffffffffffffffffffffffff168173ffffffffffffffffffffffffffffffffffffffff167f8be0079c531659141344cd1fd0a4f28419497f9722a3daafe3b4186f6b6457e060405160405180910390a35050565b600033905090565b50805460008255906000526020600020908101906117b891906117bb565b50565b5b808211156117d45760008160009055506001016117bc565b5090565b6000604051905090565b600080fd5b600080fd5b6000819050919050565b6117ff816117ec565b811461180a57600080fd5b50565b60008135905061181c816117f6565b92915050565b600060208284031215611838576118376117e2565b5b60006118468482850161180d565b91505092915050565b600081519050919050565b600082825260208201905092915050565b60005b8381101561188957808201518184015260208101905061186e565b60008484015250505050565b6000601f19601f8301169050919050565b60006118b18261184f565b6118bb818561185a565b93506118cb81856020860161186b565b6118d481611895565b840191505092915050565b6118e8816117ec565b82525050565b600073ffffffffffffffffffffffffffffffffffffffff82169050919050565b6000611919826118ee565b9050919050565b6119298161190e565b82525050565b6000606082019050818103600083015261194981866118a6565b905061195860208301856118df565b6119656040830184611920565b949350505050565b6119768161190e565b811461198157600080fd5b50565b6000813590506119938161196d565b92915050565b6000602082840312156119af576119ae6117e2565b5b60006119bd84828501611984565b91505092915050565b600060408201905081810360008301526119e081856118a6565b90506119ef60208301846118df565b9392505050565b6000602082019050611a0b6000830184611920565b92915050565b600080fd5b600080fd5b7f4e487b7100000000000000000000000000000000000000000000000000000000600052604160045260246000fd5b611a5382611895565b810181811067ffffffffffffffff82111715611a7257611a71611a1b565b5b80604052505050565b6000611a856117d8565b9050611a918282611a4a565b919050565b600067ffffffffffffffff821115611ab157611ab0611a1b565b5b611aba82611895565b9050602081019050919050565b82818337600083830152505050565b6000611ae9611ae484611a96565b611a7b565b905082815260208101848484011115611b0557611b04611a16565b5b611b10848285611ac7565b509392505050565b600082601f830112611b2d57611b2c611a11565b5b8135611b3d848260208601611ad6565b91505092915050565b600060208284031215611b5c57611b5b6117e2565b5b600082013567ffffffffffffffff811115611b7a57611b796117e7565b5b611b8684828501611b18565b91505092915050565b6000602082019050611ba460008301846118df565b92915050565b7f4e487b7100000000000000000000000000000000000000000000000000000000600052602160045260246000fd5b60068110611bea57611be9611baa565b5b50565b6000819050611bfb82611bd9565b919050565b6000611c0b82611bed565b9050919050565b611c1b81611c00565b82525050565b6000602082019050611c366000830184611c12565b92915050565b7f4e487b7100000000000000000000000000000000000000000000000000000000600052602260045260246000fd5b60006002820490506001821680611c8357607f821691505b602082108103611c9657611c95611c3c565b5b50919050565b7f596f752063616e20766f746520617420746869732074696d6500000000000000600082015250565b6000611cd260198361185a565b9150611cdd82611c9c565b602082019050919050565b60006020820190508181036000830152611d0181611cc5565b9050919050565b7f596f752063616e6e6f7420766f74650000000000000000000000000000000000600082015250565b6000611d3e600f8361185a565b9150611d4982611d08565b602082019050919050565b60006020820190508181036000830152611d6d81611d31565b9050919050565b7f596f75206861766520616c726561647920766f74656400000000000000000000600082015250565b6000611daa60168361185a565b9150611db582611d74565b602082019050919050565b60006020820190508181036000830152611dd981611d9d565b9050919050565b7f4e487b7100000000000000000000000000000000000000000000000000000000600052603260045260246000fd5b7f4e487b7100000000000000000000000000000000000000000000000000000000600052601160045260246000fd5b6000611e49826117ec565b91507fffffffffffffffffffffffffffffffffffffffffffffffffffffffffffffffff8203611e7b57611e7a611e0f565b5b600182019050919050565b6000604082019050611e9b6000830185611920565b611ea860208301846118df565b9392505050565b7f526567697374726174696f6e20686173206e6f7420796574207374617274656460008201527f206f72206f722069742773206e6f74207468652072696768742074696d650000602082015250565b6000611f0b603e8361185a565b9150611f1682611eaf565b604082019050919050565b60006020820190508181036000830152611f3a81611efe565b9050919050565b7f596f7527726520616c7265616479207265676973747265640000000000000000600082015250565b6000611f7760188361185a565b9150611f8282611f41565b602082019050919050565b60006020820190508181036000830152611fa681611f6a565b9050919050565b7f50726f706f73616c20706572696f6420686173206e6f7420796574207374617260008201527f746564206f722069742773206e6f74207468652072696768742074696d650000602082015250565b6000612009603e8361185a565b915061201482611fad565b604082019050919050565b6000602082019050818103600083015261203881611ffc565b9050919050565b7f596f75277265206e6f7420726567697374657265640000000000000000000000600082015250565b600061207560158361185a565b91506120808261203f565b602082019050919050565b600060208201905081810360008301526120a481612068565b9050919050565b60008190508160005260206000209050919050565b60006020601f8301049050919050565b600082821b905092915050565b60006008830261210d7fffffffffffffffffffffffffffffffffffffffffffffffffffffffffffffffff826120d0565b61211786836120d0565b95508019841693508086168417925050509392505050565b6000819050919050565b600061215461214f61214a846117ec565b61212f565b6117ec565b9050919050565b6000819050919050565b61216e83612139565b61218261217a8261215b565b8484546120dd565b825550505050565b600090565b61219761218a565b6121a2818484612165565b505050565b5b818110156121c6576121bb60008261218f565b6001810190506121a8565b5050565b601f82111561220b576121dc816120ab565b6121e5846120c0565b810160208510156121f4578190505b612208612200856120c0565b8301826121a7565b50505b505050565b600082821c905092915050565b600061222e60001984600802612210565b1980831691505092915050565b6000612247838361221d565b9150826002028217905092915050565b6122608261184f565b67ffffffffffffffff81111561227957612278611a1b565b5b6122838254611c6b565b61228e8282856121ca565b600060209050601f8311600181146122c157600084156122af578287015190505b6122b9858261223b565b865550612321565b601f1984166122cf866120ab565b60005b828110156122f7578489015182556001820191506020850194506020810190506122d2565b868310156123145784890151612310601f89168261221d565b8355505b6001600288020188555050505b505050505050565b6000612334826117ec565b915061233f836117ec565b925082820390508181111561235757612356611e0f565b5b92915050565b7f526567697374726174696f6e20686173206e6f7420796574207374617274656460008201527f206f722069742773206e6f74207468652072696768742074696d650000000000602082015250565b60006123b9603b8361185a565b91506123c48261235d565b604082019050919050565b600060208201905081810360008301526123e8816123ac565b9050919050565b60006040820190506124046000830185611c12565b6124116020830184611c12565b9392505050565b7f53657373696f6e206973206e6f74206f76657200000000000000000000000000600082015250565b600061244e60138361185a565b915061245982612418565b602082019050919050565b6000602082019050818103600083015261247d81612441565b9050919050565b600061ffff82169050919050565b600061249d82612484565b915061ffff82036124b1576124b0611e0f565b5b600182019050919050565b7f4974277320746f206561726c7900000000000000000000000000000000000000600082015250565b60006124f2600d8361185a565b91506124fd826124bc565b602082019050919050565b60006020820190508181036000830152612521816124e5565b9050919050565b7f596f7520686176656e2774207374617274656420766f74696e67207965740000600082015250565b600061255e601e8361185a565b915061256982612528565b602082019050919050565b6000602082019050818103600083015261258d81612551565b9050919050565b7f566f74652073657373696f6e206973206e6f74206f766572206f72206974277360008201527f206e6f74207468652072696768742074696d6500000000000000000000000000602082015250565b60006125f060338361185a565b91506125fb82612594565b604082019050919050565b6000602082019050818103600083015261261f816125e3565b9050919050565b7f50726f706f73616c2073657373696f6e20686173206e6f742079657420636c6f60008201527f7365206f722069742773206e6f74207468652072696768742074696d65000000602082015250565b6000612682603d8361185a565b915061268d82612626565b604082019050919050565b600060208201905081810360008301526126b181612675565b9050919050565b7f4f776e61626c653a206e6577206f776e657220697320746865207a65726f206160008201527f6464726573730000000000000000000000000000000000000000000000000000602082015250565b600061271460268361185a565b915061271f826126b8565b604082019050919050565b6000602082019050818103600083015261274381612707565b9050919050565b7f4f776e61626c653a2063616c6c6572206973206e6f7420746865206f776e6572600082015250565b600061278060208361185a565b915061278b8261274a565b602082019050919050565b600060208201905081810360008301526127af81612773565b905091905056fea264697066735822122072fff7bb9a487e10858ebbaa21eb82c55f821fd7cc1ed6c07d28e8440974beac64736f6c63430008110033",
  "immutableReferences": {},
  "source": "// SPDX-License-Identifier: GPL-3.0\n\npragma solidity >=0.7.0 <0.9.0;\n\n// import of Ownable\nimport \"../node_modules/@openzeppelin/contracts/access/Ownable.sol\";\n\ncontract Voting is Ownable {\n    /**\n     * @dev Structure of a person voting\n     */\n    struct Voter {\n        bool isRegistered;\n        bool hasVoted;\n        uint256 votedProposalId;\n        uint256 countOfWon; // V2\n    }\n    /**\n     * @dev Structure of a proposal\n     */\n    struct Proposal {\n        string description;\n        uint256 voteCount;\n        address proposersAddress; // V2\n    }\n    /**\n     * @dev Different states of a vote\n     */\n    enum WorkflowStatus {\n        RegisteringVoters,\n        ProposalsRegistrationStarted,\n        ProposalsRegistrationEnded,\n        VotingSessionStarted,\n        VotingSessionEnded,\n        VotesTallied\n    }\n    /**\n     * @dev Listing of Events\n     */\n    event VoterRegistered(address voterAddress);\n    event WorkflowStatusChange(\n        WorkflowStatus previousStatus,\n        WorkflowStatus newStatus\n    );\n    event ProposalRegistered(uint256 proposalId);\n    event Voted(address voter, uint256 proposalId);\n\n    /**\n     * @dev Listing of variables\n     */\n    WorkflowStatus public currentStatus;\n    uint256 winningProposalId;\n    mapping(address => Voter) voters;\n    address[] public addressOfVoters;\n    Proposal[] public proposals;\n    // V2\n    address[] public allOfWinners;\n    uint256 public nbSession;\n\n    /**\n     * @dev constructor initial state\n     */\n    constructor() {\n        currentStatus = WorkflowStatus.RegisteringVoters;\n        nbSession = 1;\n    }\n\n    /**\n     * @dev The voting administrator registers a white list of voters identified by their Ethereum address.\n     * @param _adressOfVoters of new voter to add\n     */\n    function registeredVoter(address _adressOfVoters) external onlyOwner {\n        // check Workflow status to begin registered voters session\n        require(\n            currentStatus == WorkflowStatus.RegisteringVoters,\n            \"Registration has not yet started or or it's not the right time\"\n        );\n        // check if voter are already registred\n        require(\n            !voters[_adressOfVoters].isRegistered,\n            \"You're already registred\"\n        );\n        voters[_adressOfVoters] = Voter(true, false, 0, 0);\n        addressOfVoters.push(_adressOfVoters);\n\n        emit VoterRegistered(_adressOfVoters);\n    }\n\n    /**\n     * @dev The voting administrator begins the proposal registration session.\n     */\n    function startProposalSession() external onlyOwner {\n        // make sure we are in registration period first\n        require(\n            currentStatus == WorkflowStatus.RegisteringVoters,\n            \"Registration has not yet started or it's not the right time\"\n        );\n        // change status to ProposalsRegistrationStarted;\n        currentStatus = WorkflowStatus.ProposalsRegistrationStarted;\n        // use the change of status event\n        emit WorkflowStatusChange(\n            WorkflowStatus.RegisteringVoters,\n            WorkflowStatus.ProposalsRegistrationStarted\n        );\n    }\n\n    /**\n     * @dev Registered voters are allowed to register their proposals while the registration session is active\n     * params _descriptionOfTheProposal\n     */\n    function addProposal(string memory _descriptionOfTheProposal) external {\n        // check status before making proposals\n        require(\n            currentStatus == WorkflowStatus.ProposalsRegistrationStarted,\n            \"Proposal period has not yet started or it's not the right time\"\n        );\n        // check if voter is registered\n        require(voters[msg.sender].isRegistered, \"You're not registered\");\n        // add proposal in array of all of proposals\n        proposals.push(Proposal(_descriptionOfTheProposal, 0, msg.sender));\n        // Take id of proposal\n        uint256 proposalId = proposals.length - 1;\n\n        emit ProposalRegistered(proposalId);\n    }\n\n    /**\n     * @dev The voting administrator closes the proposal registration session.\n     */\n    function endProposalSession() external onlyOwner {\n        // check if we are the right status\n        require(\n            currentStatus == WorkflowStatus.ProposalsRegistrationStarted,\n            \"Proposal period has not yet started or it's not the right time\"\n        );\n        // change status to ProposalsRegistrationEnded;\n        currentStatus = WorkflowStatus.ProposalsRegistrationEnded;\n        // use the change of status event\n        emit WorkflowStatusChange(\n            WorkflowStatus.ProposalsRegistrationStarted,\n            WorkflowStatus.ProposalsRegistrationEnded\n        );\n    }\n\n    /**\n     * @dev The voting administrator begins the voting session.\n     */\n    function startVotingSession() external onlyOwner {\n        // check if the proposal session has close\n        require(\n            currentStatus == WorkflowStatus.ProposalsRegistrationEnded,\n            \"Proposal session has not yet close or it's not the right time\"\n        );\n        // change status to VotingSessionStarted\n        currentStatus = WorkflowStatus.VotingSessionStarted;\n        emit WorkflowStatusChange(\n            WorkflowStatus.ProposalsRegistrationEnded,\n            WorkflowStatus.VotingSessionStarted\n        );\n    }\n\n    /**\n     * @dev Registered voters vote for their preferred proposal.\n     * @param _votedId id of proposal to vote\n     */\n    function voteToFavorite(uint256 _votedId) external {\n        // check if we are in the session to vote\n        require(\n            currentStatus == WorkflowStatus.VotingSessionStarted,\n            \"You can vote at this time\"\n        );\n        // check if we are the rights to vote\n        require(voters[msg.sender].isRegistered, \"You cannot vote\");\n        // check if the voter has not already voted\n        require(!voters[msg.sender].hasVoted, \"You have already voted\");\n        // Get proposal id of the vote\n        voters[msg.sender].votedProposalId = _votedId;\n        // set the status hasVoted at true\n        voters[msg.sender].hasVoted = true;\n        // add a vote to specific proposal\n        proposals[_votedId].voteCount++;\n        emit Voted(msg.sender, _votedId);\n    }\n\n    /**\n     * @dev The voting administrator ends the voting session.\n     */\n    function VotingSessionEnded() external onlyOwner {\n        // check if we are in the right moment\n        require(\n            currentStatus == WorkflowStatus.VotingSessionStarted,\n            \"You haven't started voting yet\"\n        );\n        // Change status to VotingSessionEnded\n        currentStatus = WorkflowStatus.VotingSessionEnded;\n        emit WorkflowStatusChange(\n            WorkflowStatus.VotingSessionStarted,\n            WorkflowStatus.VotingSessionEnded\n        );\n    }\n\n    /**\n     * @dev The voting administrator counts the votes and return the winning proposal.\n     */\n    function VotesCounted() external onlyOwner {\n        require(\n            currentStatus == WorkflowStatus.VotingSessionEnded,\n            \"Vote session is not over or it's not the right time\"\n        );\n\n        currentStatus = WorkflowStatus.VotesTallied;\n\n        uint256 winningVoteCount = 0;\n        for (uint256 i = 0; i < proposals.length; i++) {\n            if (proposals[i].voteCount > winningVoteCount) {\n                winningVoteCount = proposals[i].voteCount;\n                winningProposalId = i;\n            }\n        }\n\n        emit WorkflowStatusChange(\n            WorkflowStatus.VotingSessionEnded,\n            WorkflowStatus.VotesTallied\n        );\n    }\n\n    /**\n     * @dev Everyone can check the final details of the winning proposal.\n     * @return _description description of winner proposal\n     * @return _nbVotes number of votes\n     */\n    function getDetailsOfWinner()\n        external\n        view\n        returns (string memory _description, uint256 _nbVotes)\n    {\n        _description = proposals[winningProposalId].description;\n        _nbVotes = proposals[winningProposalId].voteCount;\n    }\n\n    /**\n        -- V2 --\n        @dev Return the winner address\n        @return _winnerAddress\n    */\n    function getWinnerAdress() public view returns (address _winnerAddress) {\n        _winnerAddress = proposals[winningProposalId].proposersAddress;\n    }\n\n    /**\n        -- V2 --\n        @dev Add one point to the winner \n    */\n    function addPointToWinner() external onlyOwner {\n        voters[getWinnerAdress()].countOfWon++;\n    }\n\n    /**\n        -- V2 --\n        @dev Stock the winner in Winner's listing\n    */\n    function addWinnerListing() external onlyOwner {\n        require(currentStatus == WorkflowStatus.VotesTallied, \"It's to early\");\n        allOfWinners.push(proposals[winningProposalId].proposersAddress);\n    }\n\n    /**\n        --V2--\n        @dev Restart session and clean data\n    */\n    function restartSession() external onlyOwner {\n        // check if we are in the good moment\n        require(\n            currentStatus == WorkflowStatus.VotesTallied,\n            \"Session is not over\"\n        );\n        // Change status to restartSession\n        nbSession++;\n        for (uint16 i; i < addressOfVoters.length; i++) {\n            delete (voters[addressOfVoters[i]]);\n        }\n        delete (addressOfVoters);\n        currentStatus = WorkflowStatus.RegisteringVoters;\n        emit WorkflowStatusChange(\n            WorkflowStatus.VotesTallied,\n            WorkflowStatus.RegisteringVoters\n        );\n    }\n}\n",
  "sourcePath": "/Users/gregorycorin/Desktop/Alyra/course_alyra/Voting/contracts/Voting.sol",
  "compiler": {
    "name": "solc",
    "version": "0.8.17+commit.8df45f5f.Emscripten.clang"
  },
  "schemaVersion": "3.4.10",
  "updatedAt": "2022-10-24T23:50:38.776Z",
  "networkType": "ethereum",
  "devdoc": {
    "events": {
      "VoterRegistered(address)": {
        "details": "Listing of Events"
      }
    },
    "kind": "dev",
    "methods": {
      "VotesCounted()": {
        "details": "The voting administrator counts the votes and return the winning proposal."
      },
      "VotingSessionEnded()": {
        "details": "The voting administrator ends the voting session."
      },
      "addPointToWinner()": {
        "details": "Add one point to the winner "
      },
      "addProposal(string)": {
        "details": "Registered voters are allowed to register their proposals while the registration session is active params _descriptionOfTheProposal"
      },
      "addWinnerListing()": {
        "details": "Stock the winner in Winner's listing"
      },
      "constructor": {
        "details": "constructor initial state"
      },
      "endProposalSession()": {
        "details": "The voting administrator closes the proposal registration session."
      },
      "getDetailsOfWinner()": {
        "details": "Everyone can check the final details of the winning proposal.",
        "returns": {
          "_description": "description of winner proposal",
          "_nbVotes": "number of votes"
        }
      },
      "getWinnerAdress()": {
        "details": "Return the winner address",
        "returns": {
          "_winnerAddress": "_winnerAddress"
        }
      },
      "owner()": {
        "details": "Returns the address of the current owner."
      },
      "registeredVoter(address)": {
        "details": "The voting administrator registers a white list of voters identified by their Ethereum address.",
        "params": {
          "_adressOfVoters": "of new voter to add"
        }
      },
      "renounceOwnership()": {
        "details": "Leaves the contract without owner. It will not be possible to call `onlyOwner` functions anymore. Can only be called by the current owner. NOTE: Renouncing ownership will leave the contract without an owner, thereby removing any functionality that is only available to the owner."
      },
      "restartSession()": {
        "details": "Restart session and clean data"
      },
      "startProposalSession()": {
        "details": "The voting administrator begins the proposal registration session."
      },
      "startVotingSession()": {
        "details": "The voting administrator begins the voting session."
      },
      "transferOwnership(address)": {
        "details": "Transfers ownership of the contract to a new account (`newOwner`). Can only be called by the current owner."
      },
      "voteToFavorite(uint256)": {
        "details": "Registered voters vote for their preferred proposal.",
        "params": {
          "_votedId": "id of proposal to vote"
        }
      }
    },
    "stateVariables": {
      "currentStatus": {
        "details": "Listing of variables"
      }
    },
    "version": 1
  },
  "userdoc": {
    "kind": "user",
    "methods": {
      "addPointToWinner()": {
        "notice": "-- V2 --"
      },
      "addWinnerListing()": {
        "notice": "-- V2 --"
      },
      "getWinnerAdress()": {
        "notice": "-- V2 --"
      },
      "restartSession()": {
        "notice": "--V2--"
      }
    },
    "version": 1
  }
}